:100000000C9439000C94F40A0C94F40A0C94F40A3D
:100010000C94F40A0C94F40A0C94F40A0C94F40A68
:100020000C94F40A0C94F40A0C94F40A0C94D1067F
:100030000C94F40A0C943C090C94F40A0C94F40A01
:100040000C94F40A0C94F40A0C94F40A0C94F40A38
:100050000C94F40A0060006B80006B007B0015F6C6
:10006000007B008F80008F009100160600910092A7
:10007000800011241FBECFE5D8E0DEBFCDBFE4E590
:10008000F0E040E017C0B591A5913591259105911B
:1000900007FD0CC095918591EF01F92FE82F059090
:1000A0000D92A217B307D9F7FE0104C01D92A21743
:1000B000B307E1F7E137F40731F70E9469000C94C8
:0600C000870AF894FFCF4F
:0C00C60054656D703A20004869676800BE
:1000D200CF93DF93CDB7DEB768970FB6F894DEBF44
:1000E2000FBECDBF0E94E6090E9456080E94D20AA6
:1000F20081E00E94B80882E00E94B80883E00E9472
:10010200B8080E94C30A0E9468070E94E50A0E947A
:10011200FF098EE094E00E94D70A61E084E10E9428
:10012200030261E080E20E94030261E08AE20E942F
:10013200030260E08AE20E948C0261E084E10E9494
:100142008C0226EC30E040E087E0F901DE011196F6
:10015200742F0E947A0A84E59CE6998788878AE34D
:1001620090E09B878A8724E538E63D872C879F8726
:100172008E878CE49FE6998B888B87E790E09B8B38
:100182008A8B2DEC30E040E085E0F901DE015496E7
:10019200742F0E947A0A80E00E941B06BC0180E054
:1001A20090E00E94A90720E030E040EA5BE30E9471
:1001B200ED0A28E63FEA4AEC52E40E94E90A2FEAF5
:1001C2003AE940E05AE30E94E90A28EB3EE145ECB5
:1001D2005EE30E94E90A60937B0070937C00809347
:1001E2007D0090937E000E94E10A60E080E00E9420
:1001F200180ACE0101960E94470A60917B00709115
:100202007C0080917D0090917E000E949E0380E29E
:100212000E94E60783E40E94E60760E081E00E9414
:10022200180ACE0108960E94470A6091900070E079
:1002320080E090E00E94790680E20E94E607CE010B
:100242000C960E94470A60918F0070E080E090E077
:100252000E94790680E20E94E6076091900070E0B9
:1002620080E090E00E94AB07C0907B00D0907C00C1
:10027200E0907D00F0907E00A70196010E94DC0ACA
:1002820018169CF481E00E94E40882E00E941009A2
:1002920061E084E10E948C0260E08AE20E948C02AA
:1002A200CE0140960E94470A21C060918F0070E003
:1002B20080E090E00E94AB079B01AC01C701B60150
:1002C2000E94DC0A181694F481E00E94100982E070
:1002D2000E94E40860E084E10E948C0261E08AE20C
:1002E2000E948C02CE0144960E94470A0E94BD05DC
:1002F200813421F080918E008130C9F50E94C80AB4
:100302002FEF83EC99E0215080409040E1F700C04C
:1003120000000E94CD0A81E080938E0000918C0043
:1003220010E00E94BD05F801E757FF4F8083882344
:1003320029F080918C008F5F80938C0080918C00DB
:10034200823009F055C010928C0010928E00E9E8BC
:10035200F0E0808190E0C0979181880F282F220FD2
:10036200220F820F890F80538093900041C00E9418
:10037200BD05823421F080918E008230C9F50E9441
:10038200C80A2FEF83EC99E0215080409040E1F7BA
:1003920000C000000E94CD0A82E080938E0000918E
:1003A2008B0010E00E94BD05F801E957FF4F8083E2
:1003B200882339F080918B008F5F80938B000E949D
:1003C2006B0A80918B00823099F410928B0010920C
:1003D2008E00E7E8F0E0808190E0C0979181880F7D
:1003E200282F220F220F820F890F805380938F00B4
:1003F2002FEF83EC99E0215080409040E1F700C05C
:040402000000C9CE5F
:100406009DEC899F912D1124292F269526952695B9
:10041600220F322F330F330F230F821B282F96956F
:1004260096959695662319F06130E1F1089592301C
:10043600A9F018F4913031F008959330D9F0943042
:1004460029F108953AB381E090E002C0880F991F20
:100456002A95E2F7809583238ABB089537B381E016
:1004660090E002C0880F991F2A95E2F780958323B2
:1004760087BB089534B381E090E002C0880F991FCE
:100486002A95E2F78095832384BB089531B381E0F2
:1004960090E002C0880F991F2A95E2F78095832382
:1004A60081BB08959230A1F018F4913031F008958F
:1004B6009330C9F0943011F108953AB381E090E099
:1004C60002C0880F991F2A95E2F7832B8ABB0895ED
:1004D60037B381E090E002C0880F991F2A95E2F7B2
:1004E600832B87BB089534B381E090E002C0880F68
:1004F600991F2A95E2F7832B84BB089531B381E0D7
:1005060090E002C0880F991F2A95E2F7832B81BBE2
:02051600089546
:100518009DEC899F912D1124292F269526952695A6
:10052800220F322F330F330F230F821B282F96955C
:1005380096959695662319F06130E1F10895923009
:10054800A9F018F4913031F008959330D9F094302F
:1005580029F108953BB381E090E002C0880F991F0C
:100568002A95E2F7809583238BBB089538B381E001
:1005780090E002C0880F991F2A95E2F7809583239F
:1005880088BB089535B381E090E002C0880F991FB9
:100598002A95E2F78095832385BB089532B381E0DD
:1005A80090E002C0880F991F2A95E2F7809583236F
:1005B80082BB08959230A1F018F4913031F008957B
:1005C8009330C9F0943011F108953BB381E090E085
:1005D80002C0880F991F2A95E2F7832B8BBB0895D9
:1005E80038B381E090E002C0880F991F2A95E2F79E
:1005F800832B88BB089535B381E090E002C0880F53
:10060800991F2A95E2F7832B85BB089532B381E0C1
:1006180090E002C0880F991F2A95E2F7832B82BBCE
:02062800089533
:10062A009DEC899F912D1124292F26952695269593
:10063A00220F322F330F330F230F821B282F969549
:10064A0096959695662319F06130E1F108959230F6
:10065A00A9F018F4913031F008959330D9F094301C
:10066A0029F108953BB381E090E002C0880F991FF9
:10067A002A95E2F7809583238BBB089538B381E0EE
:10068A0090E002C0880F991F2A95E2F7809583238C
:10069A0088BB089535B381E090E002C0880F991FA6
:1006AA002A95E2F78095832385BB089532B381E0CA
:1006BA0090E002C0880F991F2A95E2F7809583235C
:1006CA0082BB08959230A1F018F4913031F0089568
:1006DA009330C9F0943011F108953BB381E090E072
:1006EA0002C0880F991F2A95E2F7832B8BBB0895C6
:1006FA0038B381E090E002C0880F991F2A95E2F78B
:10070A00832B88BB089535B381E090E002C0880F3F
:10071A00991F2A95E2F7832B85BB089532B381E0AE
:10072A0090E002C0880F991F2A95E2F7832B82BBBB
:02073A00089520
:10073C009F92AF92BF92CF92DF92EF92FF920F9364
:10074C001F93CF93DF93CDB7DEB760970FB6F894B6
:10075C00DEBF0FBECDBF6B017C010E948908962EB7
:10076C00A72EB82E092F1FEF1F5F2AE030E040E0C4
:10077C0050E00E94A909E1E0F0E0EC0FFD1FE10F51
:10078C00F11D17FDFA956083622F732F842F952F1F
:10079C00611571058105910539F70DC0E1E0F0E0B7
:1007AC00EC0FFD1FE10FF11D17FDFA958081805DA7
:1007BC000E94E607115011238CF78EE20E94E60787
:1007CC00692D7A2D8B2D902F0E94A9079B01AC01CE
:1007DC00C701B6010E949A0A20E030E04AE754E4CF
:1007EC000E94ED0A0E94A10A0E94790660960FB63B
:1007FC00F894DEBF0FBECDBFDF91CF911F910F914B
:10080C00FF90EF90DF90CF90BF90AF909F900895A6
:10081C008CB180936000853409F468C00E94C80ACA
:10082C002FEF83EC99E0215080409040E1F700C01D
:10083C0000000E94CD0A80916000833421F09091D9
:10084C008D00913049F590918D00913051F490913B
:10085C008C00E92FF0E0E757FF4F80839F5F909368
:10086C008C0081E080938D0080918C008230F1F5BA
:10087C0010928C0010928D00E9E8F0E0808190E0FD
:10088C00C0979181880F282F220F220F820F890F7A
:10089C008053809390000895843411F0923031F598
:1008AC00923051F490918B00E92FF0E0E957FF4F13
:1008BC0080839F5F90938B0082E080938D0080916A
:1008CC008B00823099F410928B0010928D00E7E827
:1008DC00F0E0808190E0C0979181880F282F220F43
:0E08EC00220F820F890F805380938F00089592
:1008FA0010C00E94AF0A58F00E94A80A40F029F4DA
:10090A005F3F29F00C94BD0A51110C94B70A0C945C
:10091A00F10A0E94870968F39923B1F3552391F3E9
:10092A00951B550BBB27AA2762177307840738F054
:10093A009F5F5F4F220F331F441FAA1FA9F335D0B1
:10094A000E2E3AF0E0E832D091505040E695001C65
:10095A00CAF72BD0FE2F29D0660F771F881FBB1F1F
:10096A00261737074807AB07B0E809F0BB0B802DFD
:10097A00BF01FF2793585F4F3AF09E3F510578F029
:10098A000C94BD0A0C94B70A5F3FE4F3983ED4F383
:10099A00869577956795B795F7959F5FC9F7880FFD
:1009AA00911D9695879597F90895E1E0660F771F4F
:1009BA00881FBB1F621773078407BA0720F0621BE0
:0E09CA00730B840BBA0BEE1F88F7E0950895AF
:1009D8000FC00E94A80A38F00E94AF0A20F09523A1
:1009E80011F00C94BD0A0C94F10A11240C94B70A66
:1009F8000E94870970F3959FC1F3950F50E0551F2A
:100A0800629FF001729FBB27F00DB11D639FAA275B
:100A1800F00DB11DAA1F649F6627B00DA11D661FAA
:100A2800829F2227B00DA11D621F739FB00DA11DCB
:100A3800621F839FA00D611D221F749F3327A00D85
:100A4800611D231F849F600D211D822F762F6A2F21
:100A580011249F5750409AF0F1F088234AF0EE0F86
:100A6800FF1FBB1F661F771F881F91505040A9F7B3
:100A78009E3F510580F00C94BD0A0C94B70A5F3F65
:100A8800E4F3983ED4F3869577956795B795F795EF
:100A9800E7959F5FC1F7FE2B880F911D9695879567
:040AA80097F908951D
:100AAC0011C00E94A80A38F00E94AF0A20F039F455
:100ABC009F3F19F426F40C94F10A0EF4E095E7FB31
:100ACC000C94BD0AE92F0E94870958F3BA176207E4
:100ADC0073078407950720F079F4A6F50C94B60AF1
:100AEC000EF4E0950B2EBA2FA02D0B01B90190013D
:100AFC000C01CA01A0011124FF27591B99F0593F81
:100B0C0050F4503E68F11A16F040A22F232F342FC8
:100B1C004427585FF3CF469537952795A795F04016
:100B2C005395C9F77EF41F16BA0B620B730B840B2B
:100B3C00BAF09150A1F0FF0FBB1F661F771F881FE3
:100B4C00C2F70EC0BA0F621F731F841F48F487953B
:100B5C0077956795B795F7959E3F08F0B0CF93952D
:0E0B6C00880F08F09927EE0F9795879508954A
:100B7A00FF920F931F93CF93DF93CDB7DEB76097A2
:100B8A000FB6F894DEBF0FBECDBF80E1EBE6F0E012
:100B9A00DE01119601900D928A95E1F701E2F12C9E
:100BAA0036C060E0802F0E948C0218E129C0812F94
:100BBA000E942407811123C08FE295E70197F1F77C
:100BCA0000C00000812F0E942407811118C0E02F65
:100BDA00F0E09F0121523109E12FF0E0CF0148975F
:100BEA00F901EE0FFF1FEE0FFF1F21E030E02C0F7F
:100BFA003D1FE20FF31FE80FF91FF08003C01F5FCC
:100C0A001C31A8F261E0802F0E948C020F5F05322E
:100C1A0040F28F2D60960FB6F894DEBF0FBECDBF9F
:0C0C2A00DF91CF911F910F91FF90089572
:100C36008130B1F028F0823019F1833089F13FC05C
:100C460087B18F7E87B987B1877F87B987B18B7F59
:100C560087B987B18D7F87B987B18E7F87B92FC056
:100C660087B18F7E87B987B1877F87B987B18B7F39
:100C760087B987B18D7F87B987B1816087B91FC072
:100C860087B18F7E87B987B1877F87B987B18B7F19
:100C960087B987B1826087B987B18E7F87B90FC060
:100CA60087B18F7E87B987B1877F87B987B18B7FF9
:100CB60087B987B1826087B987B1816087B986B104
:100CC600806486B980E090E0DC0105C00196A11D34
:100CD600B11D349908C081152DE2920721E3A207C0
:0C0CE60021E0B20798F384B195B10895A5
:100CF200CF92DF92EF92FF921F93CF93DF93CDB704
:100D0200DEB760970FB6F894DEBF0FBECDBF6B01A2
:100D12007C0199235CF4F094E094D094C094C11CBB
:100D2200D11CE11CF11C8DE20E94E6071FEF1F5F40
:100D3200C701B6012AE030E040E050E00E94300AEC
:100D4200E1E0F0E0EC0FFD1FE10FF11D17FDFA9558
:100D52006083C22ED32EE42EF52EC114D104E104F9
:100D6200F10429F70DC0E1E0F0E0EC0FFD1FE10F07
:100D7200F11D17FDFA958081805D0E94E6071150F2
:100D820011238CF760960FB6F894DEBF0FBECDBF6D
:100D9200DF91CF911F91FF90EF90DF90CF90089558
:100DA2001F920F920FB60F9211242F933F934F93DE
:100DB2005F936F937F938F939F93AF93BF93EF93C1
:100DC200FF9380917F0090918000A0918100B0916B
:100DD20082000196A11DB11D80937F009093800037
:100DE200A0938100B09382004091830050918400CF
:100DF200609185007091860084179507A607B70752
:100E020089F4E0916700F091680009958091910062
:100E1200819582BF10927F00109280001092810013
:100E220010928200FF91EF91BF91AF919F918F91AC
:100E32007F916F915F914F913F912F910F900FBED4
:060E42000F901F901895AF
:100E48009DEC899F912D1124292F2695269526956D
:100E5800220F322F330F330F230F821B282F892F96
:100E6800869586958695823091F018F4813031F018
:100E780029C08330A9F08430E1F024C089B390E020
:100E880002C0959587952A95E2F78170089586B3F3
:100E980090E002C0959587952A95E2F781700895AC
:100EA80083B390E002C0959587952A95E2F7817003
:100EB800089580B390E002C0959587952A95E2F74A
:080EC8008170089580E0089597
:100ED00061E081E20E94030261E082E20E9403027B
:100EE00061E083E20E94030261E084E20E94030267
:100EF00060E088E10E94030260E089E10E94030251
:100F000060E08AE10E94030260E08BE10E9403023C
:100F100061E088E10E94150361E089E10E94150308
:100F200061E08AE10E94150361E08BE10E941503F4
:100F300061E081E20E948C0261E082E20E948C0208
:100F400061E083E20E948C0261E084E20E948C02F4
:020F5000089502
:100F5200E89409C097FB3EF4909580957095619551
:100F62007F4F8F4F9F4F9923A9F0F92F96E9BB2707
:100F72009395F695879577956795B795F111F8CF83
:100F8200FAF4BB0F11F460FF1BC06F5F7F4F8F4FEE
:100F92009F4F16C0882311F096E911C0772321F0E4
:100FA2009EE8872F762F05C0662371F096E8862F7C
:100FB20070E060E02AF09A95660F771F881FDAF7D3
:0A0FC200880F9695879597F908951A
:100FCC00CF93C82F61E085E10E948C028C2F829513
:100FDC008F700E94CB0961E087E10E948C028FE93F
:100FEC009FE00197F1F700C0000060E087E10E94EC
:100FFC008C028FE99FE00197F1F700C000008C2F65
:10100C000E94CB0961E087E10E948C028FE99FE08E
:10101C000197F1F700C0000060E087E10E948C02AC
:10102C008FE99FE00197F1F700C00000CF91089580
:10103C00CF93C82F60E085E10E948C028C2F8295A3
:10104C008F700E94CB0961E087E10E948C028FE9CE
:10105C009FE00197F1F700C0000060E087E10E947B
:10106C008C028FE99FE00197F1F700C000008C2FF4
:10107C000E94CB0961E087E10E948C028FE99FE01E
:10108C000197F1F700C0000060E087E10E948C023C
:10109C008FE99FE00197F1F700C00000CF91089510
:1010AC0061E08EE00E94030261E08FE00E94030287
:1010BC0061E080E10E94030261E081E10E94030291
:1010CC0061E085E10E94030261E087E10E94030276
:1010DC0061E086E10E94030260E086E10E948C02DE
:1010EC0083E30E941E0882E30E941E0888E20E948D
:1010FC001E088CE00E941E0881E00E941E0882E0FF
:06110C000E941E08089578
:101112000E948F0988F09F5798F0B92F9927B751ED
:10112200B0F0E1F0660F771F881F991F1AF0BA9589
:10113200C9F714C0B13091F00E94B60AB1E0089527
:101142000C94B60A672F782F8827B85F39F0B93F19
:10115200CCF3869577956795B395D9F73EF490953C
:0E1162008095709561957F4F8F4F9F4F089538
:101170008230B1F028F4882349F0813061F008957D
:101180008430C1F090F08530D1F0089561E080E2C4
:101190000E940302089561E085E20E94030208951F
:1011A00061E08BE20E940302089561E08AE20E94FE
:1011B0000302089561E08EE20E940302089561E057
:0811C00084E10E94030208957E
:1011C8008230B1F028F4882349F0813061F0089525
:1011D8008430C1F090F08530D1F0089561E080E26C
:1011E8000E948C02089561E085E20E948C020895B5
:1011F80061E08BE20E948C02089561E08AE20E941D
:101208008C02089561E08EE20E948C02089561E0EC
:0812180084E10E948C0208959C
:101220008230B1F028F4882349F0813061F00895CC
:101230008430C1F090F08530D1F0089560E080E214
:101240000E948C02089560E085E20E948C0208955D
:1012500060E08BE20E948C02089560E08AE20E94C6
:101260008C02089560E08EE20E948C02089560E096
:0812700084E10E948C02089544
:101278001F920F920FB60F9211242F933F934F9303
:101288005F936F937F938F939F93AF93BF93EF93E6
:10129800FF93E0916900F0916A000995FF91EF9141
:1012A800BF91AF919F918F917F916F915F914F9176
:0E12B8003F912F910F900FBE0F901F90189531
:1012C600990F0008550FAA0BE0E8FEEF1616170651
:1012D600E807F907C0F012161306E407F50798F0B9
:1012E600621B730B840B950B39F40A2661F0232BD2
:1012F600242B252B21F408950A2609F4A140A6954E
:081306008FEF811D811D089588
:10130E0057FD9058440F551F59F05F3F71F04795A8
:10131E00880F97FB991F61F09F3F79F0879508958D
:10132E00121613061406551FF2CF4695F1DF08C0AC
:10133E00161617061806991FF1CF869571056105C9
:04134E000894089562
:10135200A1E21A2EAA1BBB1BFD010DC0AA1FBB1FB7
:10136200EE1FFF1FA217B307E407F50720F0A21B29
:10137200B30BE40BF50B661F771F881F991F1A9496
:1013820069F760957095809590959B01AC01BD01C0
:04139200CF010895EA
:10139600CF93C82F682F61708EE00E948C02C1FB2C
:1013A600662760F98FE00E948C02C2FB662760F90F
:1013B60080E10E948C02C3FB662760F981E10E94EE
:0613C6008C02CF91089596
:1013CC0087B18F7787B987B1806487B987B18F7DF3
:1013DC0087B986B1846086B986B1826086B986B1D8
:1013EC00816086B986B1806286B986B1806886B91B
:0213FC00089552
:1013FE0060E088E20E94030261E089E20E9403023B
:10140E008AB18B7F8AB986E880BD87E689B98AB1B1
:10141E0080688AB98AB180618AB98AB188608AB9CE
:02142E0008951F
:10143000CF93DF9300D0CDB7DEB790E8998390ECDF
:101440009A83E1E0F0E0EC0FFD1FE80FF11D8081D1
:10145000860F0E941E080F900F90DF91CF91089584
:10146000052E97FB1EF400940E94920A57FD07D0A8
:101470000E94A90907FC03D04EF40C94920A5095DF
:0E1480004095309521953F4F4F4F5F4F089597
:10148E000F931F93CF938C01C0E003C00E94E60719
:10149E00CF5FF801EC0FF11D80818111F7CFCF9155
:0614AE001F910F9108954B
:1014B400092E0394000C11F4882352F0BB0F40F45E
:1014C400BF2B11F460FF04C06F5F7F4F8F4F9F4F9E
:0214D400089579
:1014D60061E08DE00E948C0287E99AE30197F1F7BB
:0E14E60000C0000060E08DE00E948C020895BE
:1014F400992777FD05C005900D920197E1F70895AE
:0A15040001900D920197E1F70895A0
:10150E00EC010E94F90A0E94F80ACE010E94FA0A22
:06151E00CE010E94F60A56
:1015240090958095709561957F4F8F4F9F4F08954B
:0E1534005058BB27AA270E9456050C945A0A4D
:0E1542000E9489086894B1110C94B70A0895AC
:0E15500000240A9416161706180609060895B8
:0E155E0000240A9412161306140605060895BA
:0E156C00E894BB2766277727CB0197F90895EF
:0C157A0097F99F6780E870E060E008953A
:0A15860061E08DE00E940302089569
:0A15900061E08DE00E948C020895D6
:0A159A0060E08DE00E948C020895CD
:0A15A40061E08CE20E94030208954A
:0A15AE0090936A008093690008958D
:0A15B8000E94630908F48FEF089504
:0815C20081E00E941E0808955B
:0815CA008FB780688FBF089500
:0815D2000E947D040C945A0AEA
:0815DA000E94EC040C945A0A73
:0615E2009FEF80EC08956C
:0415E8000C9400005F
:0415EC000E946100F8
:0215F00008955C
:0215F20008955A
:0215F400089558
:1015F6003132334134353642373839432A30234481
:0116060019CA
:0116070016CC
:00000001FF
